:020000040800F2
:1000000000000120F101000841020008410200083F
:1000100041020008410200084102000800000000FF
:100020000000000000000000000000004102000885
:10003000410200080000000041020008D50100084C
:1000400000000000410200084102000841020008CF
:100050004102000841020008410200084102000874
:1000600041020008410200084102000800000000AF
:100070000000000000000000000000000000000080
:100080000000000000000000410200080000000025
:100090000000000000000000000000004102000815
:1000A0004102000841020008410200084102000824
:1000B0004102000841020008410200084102000814
:1000C0004102000841020008410200084102000804
:1000D000410200084102000841020008000000003F
:1000E000410200084102000841020008000000002F
:1000F0000000000000000000000000000000000000
:10010000000000004102000841020008410200080E
:1001100000000000000000000000000000000000DF
:1001200000000000000000000000000000000000CF
:1001300000000000000000000000000000000000BF
:100140000000000000000000000000004102000864
:100150000000000000000000000000004102000854
:1001600041020008410200080000000000000000F9
:10017000000000000000000000000000000000007F
:100180000000000041020008000000000000000024
:040190004102000820
:1001940010B5054C237833B9044B13B10448AFF3BD
:1001A40000800123237010BD000000200000000027
:1001B4008C02000808B5034B1BB103490348AFF395
:1001C400008008BD00000000040000208C0200082C
:1001D40080B500AF024B1B68984700BF80BD00BFCD
:1001E4001C00002080B400AFFEE700000D488546E7
:1001F400AFF300800C480D490D4A002302E0D458A7
:10020400C4500433C4188C42F9D30A4A0A4C00235C
:1002140001E013600432A242FBD300F011F8FFF7AF
:10022400E1FFFEE7000001200000002000000020A4
:10023400AC0200080000002020000020FEE70000BF
:1002440070B50D4D0D4C641BA4100026A64209D1B7
:100254000B4D0C4C00F018F8641BA4100026A642A9
:1002640005D170BD55F8043B98470136EEE755F8C3
:10027400043B98470136F2E7A4020008A4020008F0
:10028400A4020008A8020008F8B500BFF8BC08BC26
:100294009E467047F8B500BFF8BC08BC9E46704740
:0402A400B901000894
:0402A80095010008B4
:04000005080001F1FD
:00000001FF
