:020000040800F2
:1000000000000120DD0900082D0A00082D0A000863
:100010002D0A00082D0A00082D0A00080000000023
:100020000000000000000000000000002D0A000891
:100030002D0A0008000000002D0A000849080008E9
:10004000000000002D0A00082D0A00082D0A0008F3
:100050002D0A00082D0A00080109000813090008EC
:100060002D0A00082D0A00082D0A000800000000D3
:100070000000000000000000000000000000000080
:1000800000000000000000002D0A00080000000031
:100090000000000000000000000000002D0A000821
:1000A0002D0A00082D0A00082D0A00082D0A000854
:1000B0002D0A00082D0A00082D0A00082D0A000844
:1000C0002D0A00082D0A00082D0A00082D0A000834
:1000D0002D0A00082D0A00082D0A00080000000063
:1000E0002D0A00082D0A00082D0A00080000000053
:1000F0000000000000000000000000000000000000
:10010000000000002D0A00082D0A00082D0A000832
:1001100000000000000000000000000000000000DF
:1001200000000000000000000000000000000000CF
:1001300000000000000000000000000000000000BF
:100140000000000000000000000000002D0A000870
:100150000000000000000000000000002D0A000860
:100160002D0A00082D0A0008000000000000000011
:10017000000000000000000000000000000000007F
:10018000000000002D0A0008000000000000000030
:040190002D0A00082C
:1001940010B5054C237833B9044B13B10448AFF3BD
:1001A40000800123237010BD000000200000000027
:1001B400780A000808B5034B1BB103490348AFF3A1
:1001C400008008BD0000000004000020780A000838
:1001D40080B483B000AF0346FB710B46BB7113467A
:1001E4007B71FB79052B57D801A252F823F000BF8D
:1001F4000D020008250200083D020008550200080F
:100204006D02000885020008274B1B687979BA79CA
:10021400520001FA02F21146234A0B4313603CE0F8
:10022400224B1B687979BA79520001FA02F211461D
:100234001E4A0B43136030E01D4B1B687979BA7971
:10024400520001FA02F21146194A0B43136024E0EA
:10025400184B1B687979BA79520001FA02F21146F7
:10026400144A0B43136018E0134B1B687979BA796D
:10027400520001FA02F211460F4A0B4313600CE0DC
:100284000E4B1B687979BA79520001FA02F21146D1
:100294000A4A0B43136000E000BF00BF0C37BD46A1
:1002A4005DF8047B704700BF000002400004024078
:1002B40000080240000C024000100240001C0240F2
:1002C40080B483B000AF0346FB710B46BB71134689
:1002D4007B71FB79052B51D801A252F823F000BFA2
:1002E400FD02000813030008290300083F03000867
:1002F400550300086B030008244B5B687979BA79CD
:1003040001FA02F21146214A0B43536037E0204BB5
:100314005B687979BA7901FA02F211461C4A0B43F7
:1003240053602CE01B4B5B687979BA7901FA02F2CD
:100334001146184A0B43536021E0174B5B687979E7
:10034400BA7901FA02F21146134A0B43536016E0DC
:10035400124B5B687979BA7901FA02F211460F4AB5
:100364000B4353600BE00E4B5B687979BA7901FA61
:1003740002F211460A4A0B43536000E000BF00BF7B
:100384000C37BD465DF8047B704700BF0000024097
:100394000004024000080240000C02400010024029
:1003A400001C024080B485B000AF0346B9607A6097
:1003B400FB73FB7B052B51D801A252F823F000BF3D
:1003C400DD030008F3030008090400081F04000803
:1003D400350400084B040008244B9A68BB685B0092
:1003E400796801FA03F3214913438B6037E0204B0A
:1003F4009A68BB685B00796801FA03F31C491343EC
:100404008B602CE01B4B9A68BB685B00796801FA2F
:1004140003F3184913438B6021E0174B9A68BB68B8
:100424005B00796801FA03F3134913438B6016E008
:10043400124B9A68BB685B00796801FA03F30F49B1
:1004440013438B600BE00E4B9A68BB685B007968C2
:1004540001FA03F30A4913438B6000E000BF00BFB5
:100464001437BD465DF8047B704700BF00000240AE
:100474000004024000080240000C02400010024048
:10048400001C024080B483B000AF0346FB710B46EE
:10049400BB7113467B717B79012B4FD1FB79052B03
:1004A40000F2A08001A252F823F000BFC9040008A2
:1004B400DD040008F104000805050008190500081A
:1004C4002D0500084C4B5A69BB79012101FA03F34D
:1004D400494913434B6188E0484B5A69BB79012170
:1004E40001FA03F3454913434B617EE0444B5A69D7
:1004F400BB79012101FA03F3414913434B6174E0D1
:10050400404B5A69BB79012101FA03F33D49134376
:100514004B616AE03C4B5A69BB79012101FA03F350
:10052400394913434B6160E0384B5A69BB79012167
:1005340001FA03F3354913434B6156E0FB79052B6C
:1005440052D801A252F823F0650500087B05000883
:1005540091050008A7050008BD050008D30500089B
:10056400254B5A69BB79012101FA03F3DB43224984
:1005740013404B6139E0214B5A69BB79012101FADF
:1005840003F3DB431D4913404B612EE01C4B5A69B6
:10059400BB79012101FA03F3DB43194913404B6191
:1005A40023E0184B5A69BB79012101FA03F3DB43B9
:1005B400144913404B6118E0134B5A69BB7901216C
:1005C40001FA03F3DB43104913404B610DE00F4B79
:1005D4005A69BB79012101FA03F3DB430B49134048
:1005E4004B6102E000BF00E000BF00BF0C37BD4616
:1005F4005DF8047B704700BF000002400004024025
:1006040000080240000C024000100240001C02409E
:1006140080B483B000AF0346FB71FB7903F01F0382
:10062400012202FA03F1064AFB795B09DBB242F8C4
:10063400231000BF0C37BD465DF8047B704700BF34
:1006440000E100E080B483B000AF0346FB71FB79A6
:1006540003F01F03012202FA03F1064AFB795B0946
:10066400DBB2403342F8231000BF0C37BD465DF8BF
:10067400047B704700E100E080B485B000AF3B60CC
:100684000346FB710B46BB7113467B71BA7939681B
:10069400344B0B441B0A02FA03F35AB297F90530A0
:1006A40013435BB2FB7397F90730002B44DA97F9D5
:1006B400073013F1030F09D097F9073013F1020F34
:1006C40004D097F90730B3F1FF3F0CD1FB79033322
:1006D400DBB2FB71FA7B97F90730DB0004339A40F5
:1006E400214B9A6135E097F9073013F1040F0CD1CF
:1006F400FB790733DBB2FB71FA7B97F90730DB0038
:1007040004339A40184BDA6123E097F9073013F168
:10071400060F04D097F9073013F1050F19D1FB79AF
:100724000833DBB2FB71FA7B97F90730DB00043343
:100734009A400D4B1A620CE097F90730002B08DB46
:100744000A4997F90730FA7B1201D2B20B4483F8B5
:100754000023054A3B68D36000BF1437BD465DF8EB
:10076400047B704700FD05FA00ED00E000E100E0C5
:1007740080B483B000AF03460A46FB711346BB71D5
:10078400FB79032B32D801A252F823F0A107000809
:10079400B5070008C9070008DD070008174B1A68E9
:1007A400BB79012101FA03F3144913430B601EE0E2
:1007B400134B1A68BB79012101FA03F3104913435F
:1007C4000B6014E00F4B1A68BB79012101FA03F3A3
:1007D4000C4913430B600AE00B4B1A68BB790121E7
:1007E40001FA03F3084913430B6000E000BF00BFA4
:1007F4000C37BD465DF8047B704700BF30380240BB
:1008040034380240403802404438024080B400AFDB
:100814000B4B1B680A4A43F001031360084B9B68A7
:10082400074A23F001039360054B9B68044A23F0B5
:100834000203936000BFBD465DF8047B704700BFB0
:100844000038024080B500AF024B1B68984700BFD8
:1008540080BD00BF1C00002080B400AF034B022207
:100864001A6000BFBD465DF8047B704710E000E0ED
:1008740080B483B000AF7860094A7B68013B536061
:10088400074B00229A60064B1B68054A43F001039C
:10089400136000BF0C37BD465DF8047B704700BF92
:1008A40010E000E080B483B000AF0346FB710A4B54
:1008B4001B68094A23F002031360074B1B68FA798B
:1008C40052001146044A0B43136000BF0C37BD4667
:1008D4005DF8047B704700BF10E000E080B400AF17
:1008E400054B1B681B0CDBB203F00103DBB218469B
:1008F400BD465DF8047B704710E000E080B500AFB2
:10090400002200210020FFF7BDFD00BF80BD80B59F
:1009140000AF012200210020FFF7B4FD00BF80BD1D
:1009240080B500AFFFF772FF00210020FFF720FF22
:10093400012200210020FFF74BFC002200210020AF
:10094400FFF7BEFC002200210020FFF72BFD01224F
:1009540000210020FFF796FD104B00220121062004
:10096400FFF78AFE0D4B002202210720FFF784FEC9
:100974000620FFF74DFE0720FFF74AFE0620FFF78B
:1009840061FE4FF47A7000F00BF80720FFF75AFE6F
:100994004FF47A7000F004F8F0E700BF0003FA05A2
:1009A40080B582B000AF7860FFF756FF0020FFF7F4
:1009B40079FF7B684FF47A7202FB03F31846FFF762
:1009C40057FF00BFFFF78AFF0346002BFAD000BF92
:1009D40000BF0837BD4680BD0D488546AFF3008093
:1009E4000C480D490D4A002302E0D458C450043386
:1009F400C4188C42F9D30A4A0A4C002301E013605C
:100A04000432A242FBD300F011F8FFF789FFFEE79E
:100A1400000001200000002000000020980A0008C7
:100A24000000002020000020FEE7000070B50D4DFE
:100A34000D4C641BA4100026A64209D10B4D0C4C8E
:100A440000F018F8641BA4100026A64205D170BD5E
:100A540055F8043B98470136EEE755F8043B9847B0
:100A64000136F2E7900A0008900A0008900A00088C
:100A7400940A0008F8B500BFF8BC08BC9E4670474D
:0C0A8400F8B500BFF8BC08BC9E467047E7
:040A9000B9010008A0
:040A940095010008C0
:04000005080009DD09
:00000001FF
