:020000040800F2
:100000000000012055070008A5070008A507000803
:10001000A5070008A5070008A507000800000000C4
:10002000000000000000000000000000A50700081C
:10003000A507000800000000A5070008A5070008A4
:1000400000000000A5070008A5070008A507000894
:10005000A5070008A5070008A5070008A5070008D0
:10006000A5070008A5070008A50700080000000074
:100070000000000000000000000000000000000080
:100080000000000000000000A507000800000000BC
:10009000000000000000000000000000A5070008AC
:1000A000A5070008A5070008A5070008A507000880
:1000B000A5070008A5070008A5070008A507000870
:1000C000A5070008A5070008A5070008A507000860
:1000D000A5070008A5070008A50700080000000004
:1000E000A5070008A5070008A507000800000000F4
:1000F0000000000000000000000000000000000000
:1001000000000000A5070008A5070008A5070008D3
:1001100000000000000000000000000000000000DF
:1001200000000000000000000000000000000000CF
:1001300000000000000000000000000000000000BF
:10014000000000000000000000000000A5070008FB
:10015000000000000000000000000000A5070008EB
:10016000A5070008A5070008000000000000000027
:10017000000000000000000000000000000000007F
:1001800000000000A50700080000000000000000BB
:04019000A5070008B7
:1001940010B5054C237833B9044B13B10448AFF3BD
:1001A40000800123237010BD000000200000000027
:1001B400F007000808B5034B1BB103490348AFF32C
:1001C400008008BD0000000004000020F0070008C3
:1001D40080B483B000AF0346FB710B46BB7113467A
:1001E4007B71FB79052B57D801A252F823F000BF8D
:1001F4000D020008250200083D020008550200080F
:100204006D02000885020008264B1B687979BA79CB
:10021400520001FA02F21146224A0B4313603CE0F9
:10022400214B1B687979BA79520001FA02F211461E
:100234001D4A0B43136030E01C4B1B687979BA7973
:10024400520001FA02F21146184A0B43136024E0EB
:10025400174B1B687979BA79520001FA02F21146F8
:10026400134A0B43136018E0124B1B687979BA796F
:10027400520001FA02F211460E4A0B4313600CE0DD
:100284000D4B1B687979BA79520001FA02F21146D2
:10029400094A0B43136000E000BF00BF0C37BD46A2
:1002A40080BC704700000240000402400008024085
:1002B400000C024000100240001C024080B483B0D5
:1002C40000AF0346FB710B46BB7113467B71FB7990
:1002D400052B51D801A252F823F000BFF9020008FF
:1002E4000F030008250300083B030008510300081E
:1002F40067030008234B5B687979BA7901FA02F243
:100304001146204A0B43536037E01F4B5B687979F1
:10031400BA7901FA02F211461B4A0B4353602CE0EE
:100324001A4B5B687979BA7901FA02F21146174AD5
:100334000B43536021E0164B5B687979BA7901FA73
:1003440002F21146124A0B43536016E0114B5B68EC
:100354007979BA7901FA02F211460E4A0B435360D5
:100364000BE00D4B5B687979BA7901FA02F2114618
:10037400094A0B43536000E000BF00BF0C37BD4681
:1003840080BC7047000002400004024000080240A4
:10039400000C024000100240001C024080B485B0F2
:1003A40000AF0346B9607A60FB73FB7B052B51D821
:1003B40001A252F823F000BFD5030008EB030008A4
:1003C40001040008170400082D0400084304000871
:1003D400234B9A68BB685B00796801FA03F32049F0
:1003E40013438B6037E01F4B9A68BB685B007968E6
:1003F40001FA03F31B4913438B602CE01A4B9A68F0
:10040400BB685B00796801FA03F3174913438B60F7
:1004140021E0164B9A68BB685B00796801FA03F324
:10042400124913438B6016E0114B9A68BB685B005A
:10043400796801FA03F30E4913438B600BE00D4B0B
:100444009A68BB685B00796801FA03F309491343AE
:100454008B6000E000BF00BF1437BD4680BC70470E
:10046400000002400004024000080240000C024068
:1004740000100240001C024080B483B000AF034669
:10048400FB710B46BB7113467B717B79012B4FD1FA
:10049400FB79052B00F2A08001A252F823F000BFE3
:1004A400BD040008D1040008E5040008F9040008AC
:1004B4000D050008210500084B4B5A69BB79012141
:1004C40001FA03F3484913434B6188E0474B5A69E7
:1004D400BB79012101FA03F3444913434B617EE0E4
:1004E400434B5A69BB79012101FA03F34049134391
:1004F4004B6174E03F4B5A69BB79012101FA03F364
:100504003C4913434B616AE03B4B5A69BB79012177
:1005140001FA03F3384913434B6160E0374B5A69DE
:10052400BB79012101FA03F3344913434B6156E0CB
:10053400FB79052B52D801A252F823F05905000883
:100544006F050008850500089B050008B105000833
:10055400C7050008244B5A69BB79012101FA03F34A
:10056400DB43214913404B6139E0204B5A69BB7985
:10057400012101FA03F3DB431C4913404B612EE0D4
:100584001B4B5A69BB79012101FA03F3DB43184978
:1005940013404B6123E0174B5A69BB79012101FADF
:1005A40003F3DB43134913404B6118E0124B5A69C0
:1005B400BB79012101FA03F3DB430F4913404B617B
:1005C4000DE00E4B5A69BB79012101FA03F3DB43B9
:1005D4000A4913404B6102E000BF00E000BF00BFC6
:1005E4000C37BD4680BC7047000002400004024046
:1005F40000080240000C024000100240001C0240AF
:1006040080B483B000AF03460A46FB711346BB7146
:10061400FB79032B32D801A252F823F031060008EB
:1006240045060008590600086D060008164B1A68AE
:10063400BB79012101FA03F3134913430B601EE054
:10064400124B1A68BB79012101FA03F30F491343D2
:100654000B6014E00E4B1A68BB79012101FA03F315
:100664000B4913430B600AE00A4B1A68BB7901215A
:1006740001FA03F3074913430B6000E000BF00BF16
:100684000C37BD4680BC70473038024034380240D5
:10069400403802404438024080B400AF0A4B1B6823
:1006A400094A43F001031360074B9B68064A23F091
:1006B40001039360044B9B68034A23F00203936095
:1006C40000BFBD4680BC70470038024080B500AF13
:1006D400FFF7E2FF00210020FFF792FF0122002133
:1006E4000020FFF775FD002200210020FFF7E6FD42
:1006F400002200210020FFF751FE012200210020EA
:10070400FFF7BAFE012200210020FFF7B5FE00F03A
:1007140009F8002200210020FFF7AEFE00F002F8E5
:10072400F0E7000080B483B000AF00237B6003E0F7
:1007340000BF7B6801337B607B68044A9342F7D92E
:1007440000BF00BF0C37BD4680BC70477F841E00CD
:100754000D488546AFF300800C480D490D4A00232F
:1007640002E0D458C4500433C4188C42F9D30A4A62
:100774000A4C002301E013600432A242FBD300F0D0
:1007840011F8FFF7A3FFFEE700000120000000209E
:100794000000002010080008000000201C000020B9
:1007A400FEE7000070B50D4D0D4C641BA41000262F
:1007B400A64209D10B4D0C4C00F018F8641BA41090
:1007C4000026A64205D170BD55F8043B9847013672
:1007D400EEE755F8043B98470136F2E708080008AD
:1007E40008080008080800080C080008F8B500BF4D
:1007F400F8BC08BC9E467047F8B500BFF8BC08BCFE
:040804009E46704755
:04080800B90100082A
:04080C00950100084A
:040000050800075593
:00000001FF
